:020000041000EA
:1000000000B5324B212058609868022188439860DF
:10001000D860186158612E4B002199600221596106
:100020000121F02299502B49196001219960352056
:1000300000F044F80222904214D00621196600F024
:1000400034F8196E01211966002018661A6600F04E
:100050002CF8196E196E196E052000F02FF8012189
:100060000842F9D1002199601B49196000215960AB
:100070001A491B48016001219960EB211966A021F2
:10008000196600F012F800219960164914480160C1
:100090000121996001BC002800D000471248134993
:1000A000086003C880F30888084703B5996A0420EC
:1000B0000142FBD001200142F8D103BD02B5186610
:1000C0001866FFF7F2FF186E186E02BD00000240BE
:1000D000000000180000070000035F00212200005C
:1000E000F4000018222000A00001001008ED00E03C
:1000F00000000000000000000000000074B24E7A12
:1001000000200420F7010010C3010010C5010010F9
:10011000C1010010C1010010C1010010C101001097
:10012000C1010010C1010010C1010010C701001081
:10013000C1010010C1010010C9010010CB01001065
:10014000CD010010CD010010CD010010CD01001037
:10015000CD010010CD010010CD010010CD01001027
:10016000CD010010CD010010CD010010CD01001017
:10017000CD010010CD010010CD010010CD01001007
:10018000CD010010CD010010CD010010CD010010F7
:10019000CD010010CD010010CD010010CD010010E7
:1001A000CD010010CD010010CD010010CD010010D7
:1001B000CD010010CD010010CD010010CD010010C7
:1001C00000BE00BE00BE00BE00BE00BEEFF3058054
:1001D000103800BEF2EB8871C4AF0010ECAF001015
:1001E0003402001090A31AE700201F49086006C8D7
:1001F00081F3088810471D48006800282FD10DA4FE
:100200000ECC002902D000F012F8F9E71849194A7B
:10021000002000E001C19142FCD1174988471749ED
:1002200088471749884700BEFDE701C901C29A42C5
:10023000FBD37047ECAF0010C00000201815002061
:1002400044C40010000004200000042044C4001036
:10025000001004200010042000000000704709482E
:1002600004F02AFB0047000008ED00E0000000D089
:1002700018150020EC220020113600104D06001049
:10028000CD3500105756000006005250ABB36053F6
:1002900000A8001006005250861C030210A800108F
:1002A000060052505422A29D20A800100500525072
:1002B000DE65F46844C40010F8B5C04610B5064CBD
:1002C0002378002B07D1054B002B02D0044800E017
:1002D00000BF0123237010BD201600200000000085
:1002E000A0900010044B10B5002B03D00349044824
:1002F00000E000BF10BDC046000000002416002032
:10030000A0900010F0B5D6464F464646C0B582B024
:1003100007000C0015000AAA12789046092B05D98F
:1003200002B0E0BCBA46B146A846F0BD3E4AD65C33
:100330000BB299462BB29A46002301931C330093CB
:100340000E3B5246494600F0DAFC730619D4B30658
:1003500022D4F3062CD4330737D4730741D4B30720
:100360004BD4F30754D44346002BD9D00123019337
:100370001B3300930E3B52464946380000F08AFC7E
:10038000CEE7611C6A1C12B209B2012300930B3341
:10039000380000F0DEFBDAE721000C31EA1C12B273
:1003A00009B2012300930933380000F06AFCD0E75A
:1003B00021000C312A000F3212B209B2012300933E
:1003C0000933380000F05DFCC5E7611C2A001932D2
:1003D00012B209B2012300930B33380000F0B9FBCD
:1003E000BBE7611C2A000F3212B209B2012300934D
:1003F0000933380000F045FCB1E7611CEA1C12B279
:1004000009B2012300930933380000F03AFCA8E751
:1004100001340D352AB221B2012300930B33380089
:1004200000F097FB9FE7C04668950010F0B583B0D9
:100430000600002B04D0114C207801256840207064
:100440000E480078002801D1002B15D102310DB2E1
:1004500094B22200083212B201270097012329002A
:10046000300000F01DFD2200143212B2009701236B
:100470002900300000F014FD03B0F0BDE12200209F
:10048000F0B591B004000D0016001F000023019389
:10049000143300936C330022002100F030FC0197EC
:1004A00000962B00214A10210CA804F0D9F9012252
:1004B0000221200000F01DFD0121200000F01CFDA4
:1004C0000CA9200000F092FD05AD194B2A0043CB8A
:1004D00043C243CB43C21B681360092202212000A0
:1004E00000F007FD0121200000F006FD169B9B0097
:1004F0005959200000F07AFD179805F0D5F80090C2
:1005000001910C4A0C2102A804F0AAF909225A21EF
:10051000200000F0EEFC0121200000F0EDFC02A91B
:10052000200000F063FD11B0F0BDC046BC9000108B
:100530004C950010CC900010F0B5C64600B582B0C6
:100540000400884617001E00002501952C23009307
:1005500054331422002100F0D2FB0A21404604F05B
:10056000D7F9030000951C220E212000FFF7CAFED8
:100570000A21404604F0CCF90B0000951C221E21F4
:100580002000FFF7BFFE00231E2230212000FFF7CE
:100590004DFF0A21380004F0BBF9030000951C222E
:1005A00036212000FFF7AEFE0A21380004F0B0F932
:1005B0000B0000951C2246212000FFF7A3FE00231C
:1005C0001E2254212000FFF731FF0A21300004F0E1
:1005D0009FF9030000951C225A212000FFF792FE8C
:1005E0000A21300004F094F90B0000951C226A21C6
:1005F0002000FFF787FE02B080BCB846F0BDF0B522
:10060000C64600B582B005000C00171C1E0000F0A5
:100610000DFAA17962792379E0788046FA20C0004A
:10062000844661440197404600902800FFF728FF68
:10063000A1786278237800962800FFF77DFF2800D4
:1006400000F080FD02B080BCB846F0BDF0B5DE46DB
:1006500057464E464546E0B59FB005F075FAFA207C
:10066000C00002F0B3F8BE4C200005F031FABD48DE
:1006700005F02EFA200005F02BFABB4805F028FA09
:10068000BA4805F025FABA4805F022FAB94805F04B
:100690001FFAB94805F01CFA3C21B84805F048FAA1
:1006A0000A2005F0E1F9B64805F012FAB54805F060
:1006B0000FFAB54805F00CFAB44805F009FA6821BC
:1006C000B34805F035FAB34805F002FAB24805F030
:1006D000FFF9B24CB249200007F0D0FF03210220FD
:1006E00000F0D6FE0321032000F0D2FE00220121FB
:1006F000022000F0E5FE00220121032000F0E0FED0
:10070000642002F063F8A74805F0E2F9A649A7487B
:1007100007F0B4FF0321042000F0BAFE03210520F6
:1007200000F0B6FE00220121042000F0C9FE0022E4
:100730000121052000F0C4FE642002F047F89C4827
:1007400005F0C6F93C22210018A800F055F9012354
:100750000022022118A800F07FFC002854D0954800
:1007600005F0B6F98F2118A800F05BFC924805F05F
:10077000AFF9052304228D4916A800F0A7FD002833
:1007800051D08E4805F0A4F94F2102AB9C4661443C
:1007900016A800F0C9FD002809D04F2302AA9446EC
:1007A00063441B78002B42D0854805F091F98548B9
:1007B00005F08EF918A800F039F908220A2118A8C6
:1007C00000F097FB012118A800F096FB7E4918A8BD
:1007D00000F00CFC1822142118A800F08AFB7B49B9
:1007E00018A800F003FC18A800F0ACFCFA20C00028
:1007F00001F0ECFF14A916A800F0FCFD00281AD1A6
:10080000734805F065F902E0724805F061F918A82F
:1008100000F001F9012040421FB0F0BCBB46B246D7
:10082000A946A046F0BD6C4805F052F9EFE76B48C9
:1008300005F04EF9BBE720220CA914A800F08EFDAC
:100840000CA9674805F074F90BA916A800F0E8FC9C
:10085000002804D1634805F03BF9FF240FE00B9812
:1008600004F022FF02000B005F4805F061F9F1E798
:10087000574805F02DF9FA20800001F0A7FF09A9DB
:1008800016A800F0B7FD0028F2D009AB1B78A342F0
:1008900003D1642001F09AFFF1E708A916A800F03F
:1008A000BFFC002801D10023089309ACA17962792B
:1008B0002379A07865782678E778B846FA27FF008C
:1008C000BC4661444746039702960195009047480D
:1008D00005F02EF9A5780A21280004F041F8C3B2EA
:1008E00007930A21280004F03BF8CEB267780A216A
:1008F000380004F035F8C1B288460A21380004F007
:100900002FF8C9B2894621788A460A21504604F058
:1009100027F8C1B28B460A21504604F021F8C9B22B
:100920000591594604915146039149460291414629
:10093000019100973300079A29002D4805F0F8F837
:10094000089804F0B1FE02000B002A4805F0F0F808
:100950000123089A210018A8FFF751FE247898E790
:10096000D4900010FC9000101C9100102C910010ED
:1009700048910010649100108C910010B491001007
:10098000D0910010EC9100100892001030920010ED
:1009900058920010749200109C920010A80C002035
:1009A000801A0600C0920010A0860100B00C002042
:1009B000E49200103493001050930010A4930010A0
:1009C000C093001018940010389400104894001040
:1009D000549400100093001070930010FC930010CA
:1009E00078940010A894001090940010BC9400100B
:1009F000F4940010389500100160027100238360A8
:100A0000022202738D324273C381038201338374E5
:100A100083828375704710B504008068002803D076
:100A200004F00EFF0023A360200010BD10B5806805
:100A30008022D200002104F00FFF10BD10B58CB24F
:100A40007F2C09D8002A07DB3F2A05DC012B04D0C4
:100A5000022B23D0002B11D010BD8068D4170723A0
:100A600023409B18DB10DB01591807231A40063B73
:100A700093401A00435C13434354EDE78068D41756
:100A8000072323409B18DB10DB0159180723134071
:100A900001229A40435C93434354DDE78068D417B6
:100AA000072323409B18DB10DB01591807231A404A
:100AB000063B93401A00435C53404354CCE7F0B5E7
:100AC00005AC258896B23F2E1ED800291DDB0C00F0
:100AD000CF18802F02DD80235B1A1BB2002B13DDA1
:100AE0008068D717072139408918C910C9016118D2
:100AF000421807210E400639B140C9B2012D08D075
:100B0000022D1CD0002D0ED0F0BD5B181BB20021B1
:100B1000DDE7581E00B2002BF6D013780B4313709C
:100B200001320300F5E7C943C9B2581E00B2002BD9
:100B3000EAD013780B40137001320300F5E7581E1A
:100B400000B2002BE0D013784B4013700132030049
:100B5000F5E710B582B004AC24880094FFF7AFFF2E
:100B600002B010BD70B504AC24888DB27F2D51D871
:100B7000002A50DBD518402D02DD40239B1A1BB202
:100B8000002B47DD8568D617072030408018C0103D
:100B900000B2C0010918691807201500054002427B
:100BA00015D00822521BD2B2F8301041C043C0B257
:100BB0009A4203DDD61AFF2535412840012C2ED05C
:100BC000022C34D0002C2ED080319B1A1BB2072B64
:100BD00011DDD81707220240D218D210D2B2012C50
:100BE00029D0022C37D0002C2DD0D817400F1A183E
:100BF000072313401B1A002B0CDD07221340063A73
:100C00009A40D3B25A1ED2B2012C2DD0022C34D02D
:100C1000002C2DD070BD9B181BB20022AAE70D78C6
:100C200028430870D0E70D7885430D70CCE70D7828
:100C300068400870C8E7FF2008708031013AD2B2DE
:100C4000002AF8D1D1E7002008708031013AD2B2F1
:100C5000002AF8D1C9E70878C04308708031013A0A
:100C6000D2B2002AF7D1C0E70B781A430A70D1E755
:100C70005B420A7813400B70CCE70B785A400A703D
:100C8000C8E710B582B004AC24880094FFF76AFF6F
:100C900002B010BDF0B5CE46474680B583B0050022
:100CA0000C00160099460AAB00229B5E98460BABDF
:100CB0001F8800974B463200FFF74BFF4346F21860
:100CC00092B2013A12B200974B4621002800FFF77A
:100CD00040FF00974346320021002800FFF7D1FF74
:100CE0004C44A1B2013909B20097434632002800B2
:100CF000FFF7C7FF03B0C0BCB946B046F0BDF0B5C2
:100D0000D6464F464646C0B582B080460D00170015
:100D10001E000AAB00229B5E9A460BAB1B889946CD
:100D20000C0009E04B46009353463A002100404630
:100D3000FFF7A7FF013424B2AB199C42F2DB02B0EB
:100D4000E0BCBA46B146A846F0BDF0B5DE4657460F
:100D50004E464546E0B589B00490059106921E00C6
:100D600012AB1B789A4613AB00229A5E14AB1B8819
:100D70000793B1B20124641A24B2CB035B1A5B005F
:100D80001BB29946013293B20393029600250127C4
:100D9000A0461DE005995944B3B2069AD21A5B00E9
:100DA0009BB203988446634401331BB212B209B26A
:100DB000079800900498FFF764FF28E0029B9E428A
:100DC00006D05346DB073AD453469B074CD40296D1
:100DD000B5425EDA4346002B09DB013E36B24A4695
:100DE000023293B212B2914643441BB29846ACB25F
:100DF000651CABB29B462DB20237BBB23FB2434437
:100E00001BB29846AE42D9DB5346DB07C2D45346E9
:100E10009B07D3D5059B5A46991AB3B2069AD21AA4
:100E20005B009BB203988446634401331BB212B249
:100E300009B2079800900498FFF723FFBEE70599D1
:100E4000029B9C466144069B1A1B63009BB203985D
:100E50008446634401331BB212B209B20798009072
:100E60000498FFF70EFFAFE7059B029A991A069BBD
:100E70001A1B63009BB203988446634401331BB280
:100E800012B209B2079800900498FFF7FAFE029692
:100E90009EE709B0F0BCBB46B246A946A046F0BDED
:100EA000F0B5CE4600B586B006000F0015001A005A
:100EB0000CAB1B88994605926B469C8A2A1B6400E2
:100EC000A3B201331BB212B2494600913900FFF7B9
:100ED000D8FE494602910023019303330093059BFA
:100EE0002A0039003000FFF730FF06B080BCB94659
:100EF000F0BDC18102827047002900D101318174A7
:100F000070470000F0B5C64600B582B006000A2959
:100F100008D00D290FD02039CBB298465E2B59D876
:100F2000002734E00023C381827CD200038A9B180F
:100F3000038201204FE00023C38101204BE0F189AF
:100F4000C919328A1219B38A12B209B23000FFF7F6
:100F500075FD013464B26D08072C16DCEB07F8D57B
:100F6000B37C012BEBD0F1891A007A438918328ABD
:100F70001800604312181BB212B209B2B08A019075
:100F800000933000FFF7BBFEE3E701377FB2042F89
:100F900007DC43469A004244134B9B18DD5D002456
:100FA000DAE7B17C4B00CB185A00F3899B181BB2CF
:100FB000F381B27D002A12D08A008A1A5200803250
:100FC00093420EDD0023F381C800338A1818308263
:100FD000012000E0002002B080BCB846F0BD012036
:100FE000F9E70120F7E7C0467495001070B50500D9
:100FF0000C0003E001342800FFF784FF217800296A
:10100000F8D170BD00B585B000236A4613735173E3
:10101000017900680093023303AA07F05BFB05B077
:1010200000BD70B504000D0041738121FFF7EAFF98
:1010300029002000FFF7E6FF70BDF8B507000E009D
:101040001500002405E0315D3800FFF7DBFF0134B7
:10105000E4B2AC42F7D3F8BD70B504000E00150041
:101060008368002B58D02000FFF7E0FC2673002D8A
:1010700000D02571042230492000FFF7DEFF3F2118
:101080002000FFF7BFFF04222C492000FFF7D5FF07
:10109000237B012B49D014212000FFF7B3FF04224A
:1010A00027492000FFF7C9FF8F236373237B012BA0
:1010B0003DD0CF236373DA212000FFF7A3FF122175
:1010C0002000FFF79FFF81212000FFF79BFF617B3E
:1010D0002000FFF797FFD9212000FFF793FF237B24
:1010E000012B26D0F1212000FFF78CFFDB2120000F
:1010F000FFF788FF40212000FFF784FFA421200094
:10110000FFF780FFA6212000FFF77CFFAF21200022
:10111000FFF778FF012070BD8020C00004F07EFB47
:10112000A06000289FD10020F5E71021B4E79E338E
:10113000C0E72221D7E7C04650970010549700100F
:1011400058970010B0B582B002AF040004221149D4
:10115000FFF773FF00212000FFF754FF7F212000DD
:10116000FFF750FF0C4B9C46E54402AD40232B702B
:10117000092068448022D200A16804F073FB217921
:10118000206800230093054B2A0007F0A3FABD4610
:10119000B0BDC0465C970010F8FBFFFF01040000E3
:1011A00000B585B0002810D06B4619735A73817949
:1011B000006800230093023303AA07F08BFA023879
:1011C00043425841C0B205B000BD0020FBE730B536
:1011D00085B0040015000F236B44197000281BD044
:1011E000002A1BD08179012300930F226A440068F2
:1011F00007F070FA012802D0002005B030BDA179B7
:1012000020680023009301332A0007F06FFA0138A9
:1012100043425841C0B2F0E70020EEE70020ECE77F
:1012200070B582B004000E00002824D0002924D01C
:101230006B46DA1D1121FFF7CAFF051E02D12800F7
:1012400002B070BD6B469A1D12212000FFF7BFFF50
:10125000051EF4D06B46D879000200B26B46063307
:101260001B781843801104F0FDF9FA21890504F078
:10127000F0F93060E3E70025E1E70025DFE730B56E
:1012800083B004000D0000281ED06B46DA1D0E212D
:10129000FFF79DFF00280DD0002D0DD06B46DA1D05
:1012A000D9797F230B4013706B46DA790E21200029
:1012B000FFF776FF03B030BD6B46DA1DD979802386
:1012C0005B420B431370EFE70020F3E770B50400B7
:1012D000080016001D00002C20D0002920D021601D
:1012E000227163716823A3710E4907F0C7F90321C6
:1012F000300000F0CDF80321280000F0C9F80022EA
:101300000121300000F0DCF800220121280000F06B
:10131000D7F801212000FFF7B2FF70BD0020FCE7E5
:101320000020FAE7A086010010B582B00C0000286A
:101330000FD000290FD06B46DA1D0F21FFF747FFB2
:10134000002804D06B4607331B78DB09237002B0FA
:1013500010BD0020FBE70020F9E70000F0B5D646FD
:101360004F464646C0B58EB0030008001100002B62
:1013700003D0002801D0132A05D80EB0E0BCBA462D
:10138000B146A846F0BD07AA9246134C1500C4CC3E
:10139000C4C5C4CCC4C524682C60DC78621E9D79A9
:1013A0005E791F799C78A4465C78A0461B789946A4
:1013B00094005346E3584A460592424604926246D8
:1013C000039202970196FA22D20094466544009552
:1013D000024A03F045FAD0E78497001060970010A6
:1013E000020003099800181840000F231A408018C3
:1013F000C0B2704770B586B004000D00002841D01F
:10140000002941D00F226A440023137081790133EF
:101410000093006807F05EF9012802D0002006B0B2
:1014200070BDA179206800230093073304AA07F058
:101430005DF907282AD104AC20787F263040FFF7D9
:10144000CFFF287060783040FFF7CAFF6870A0783F
:10145000403E3040FFF7C4FFA870E27807231340F6
:10146000EB7020793040FFF7BBFF287163791F20B4
:101470001840FFF7B5FF6871A079FFF7B1FFA871B9
:101480000120CCE70020CAE70020C8E70020C6E71B
:1014900010B58300084A944663441C6840226240A9
:1014A000C02414408022520113431C60C000034B2F
:1014B0009C466044416010BD04C0014000400140B2
:1014C00080000B4B9C46604400290DD00823002A65
:1014D0000CD004221343026853400C221340802294
:1014E00052011043036070470023F0E70022F1E748
:1014F00004C00140034B1B6802201840431E984162
:10150000C0B2704700C00640EFF3108072B6034BC4
:101510001B68002BFBD0BFF35F8F70472C0100D0FE
:10152000BFF35F8F024B00221A6080F31088704770
:101530002C0100D0F8B506000C001500FFF7E4FF01
:10154000E308F718F15C07222240012393400B4285
:1015500005D1DBB20B433B70FFF7E2FFF8BD210082
:10156000280002F0D1F8F0B583B006000191140014
:101570001F00FFF7C9FF00E00134BC420CD8E308AC
:10158000F518F35C0721214001228A401A42F3D169
:10159000D2B21A432A7001E001246442FFF7C0FF6F
:1015A000002C02DB200003B0F0BD019B002BF9D022
:1015B000089802F0A9F80000002307E0054A9A18ED
:1015C0009200BFF35F8F0021116001331F2BF5D90B
:1015D0007047C04640000034054A1078431CDBB217
:1015E0001370172B02D9130010221A707047C046CF
:1015F000B00B002000B583B00100044B00931F2303
:1016000018220348FFF7AFFF03B000BDA0970010FA
:10161000D81B0020074B9B68103080001950BFF387
:101620005F8FBFF35F8F044B0021196082F3108836
:101630007047C04600ED00E0240100D010B5091A43
:10164000081F0A4B9C466144094A914208D8C307C7
:1016500006D440104005400D064B184380B210BD23
:10166000054B064AA321064801F0B4FFFC07000021
:10167000FE0F000000E0FFFFBC970010489A00102A
:10168000EC97001010B5091A04394C08090B08D161
:101690004905490D064A11430180064B2343438007
:1016A00010BD054B054AAB21054801F093FFC0462C
:1016B00000F0FFFF00F8FFFF489800101C9A001090
:1016C000EC97001001238340034A10681840431E22
:1016D0009841C0B27047C04600E100E0002904D044
:1016E000034B1860034B18607047034B1860FBE70F
:1016F00080E200E000E100E080E100E010B50123BD
:1017000083401800FFF7EAFF10BD0000012383406B
:10171000014A13607047C04600E200E0024B9B683C
:1017200010308000C058704700ED00E010B5FFF7A2
:10173000F5FF002805D0054BC01A2F2803D801203B
:1017400010BD0020FCE70020FAE7C046B40B0020E3
:1017500070B504000D00EFF3108672B60C4B1B68D9
:10176000002BFBD0BFF35F8F2000FFF7D7FF094BA3
:10177000984201D0A84205D1320029002000FFF78D
:1017800049FF70BD044B054A8621054801F022FF40
:10179000240100D0CD010010589800107C9A001050
:1017A000EC970010F0B5DE4657464E464546E0B58C
:1017B00089B0814601911500EFF3108A72B6744B1F
:1017C0001B68002BFBD0BFF35F8F724B0027DF57E6
:1017D000002F40DB7C00E419A4006F482418062287
:1017E000A2566C4B1A706D4B9A684B4610339B0097
:1017F000D35898461E001B1A2F2B38D9684B984592
:101800002FD105AE674B33807B009B46D8198000F3
:10181000614B9846404402306349FFF70FFF7080E8
:10182000624BB380FF23B371F571019B07935F4453
:10183000BF0047440ECE0EC701231C43A0465246AC
:1018400041464846FFF7E6FE09B0F0BCBB46B2464B
:10185000A946A046F0BD564B564AD721564801F03E
:10186000B9FE564B534ADE21534801F0B3FEC04344
:1018700040440C2103F074F8002912D101239E4347
:10188000B34633000026DA79AA4211D90621595607
:1018900000290CDB4A00521892001E003E4B9B1898
:1018A000F1E7474B434AEA21434801F093FE1E000B
:1018B000002E3AD005AB434A1A80813A5A8006235B
:1018C000F3560293002B17DA3F4805AB9B469880EE
:1018D000029A9A71DD71019A0792301D2100FFF77B
:1018E000ADFEB080B7717B00DB199B002A4FFF185B
:1018F0005B4607CB07C7A2E77800C0198000264BDC
:10190000C0180430321DB388D90A1C2907D15B05E1
:101910005915023149005118FFF790FED5E72B4BBE
:101920002B4AB121244801F055FE05AE1D4B3380F2
:101930007B000293D8198000174A90460200424467
:101940000392901C1849FFF779FE7080039A101DCE
:101950005946FFF773FEB0801E4B5A464146521A55
:10196000524153431B0DB371F571019A0792029BCB
:101970009C466744BF0047440ECE0EC7114B5A46E3
:101980001380813B538001231C43A04657E7C04688
:10199000240100D0E6220020B40B002000ED00E07E
:1019A000CD01001000A1FFFFE40B002001BDFFFFEF
:1019B00090980010649A0010EC970010B8980010EE
:1019C000E09800100148000001BD0000549900108B
:1019D000549A0010AAAA0000F0B5CE46474680B53A
:1019E00083B006000D00EFF3108872B6564B1B68EB
:1019F000002BFBD0BFF35F8F544B9A683400103438
:101A0000A300D758524B9F4207D0AF4200D198E075
:101A10000197504BFB1A2F2B09D942463900300051
:101A2000FFF7F8FD03B0C0BCB946B046F0BD3000CA
:101A3000FFF748FE814600213000FFF75FFEBFF34D
:101A40005F8FEFF30581002901D08C4211D1012372
:101A5000019C9C430022A368AB4212D00622A256EE
:101A6000002A0DDB53009B189B002200394CE41820
:101A7000F1E73621384B394AFF31394801F0AAFDE8
:101A80002200AB4256D106256557002D38DB6B008E
:101A90005B199A002F4B9B189A68A260DA79E27161
:101AA00006229A56A2719B795BB2002B0FDA2D4861
:101AB000A0806B005B199B00264AD3182A4A117834
:101AC0009971157049463000FFF718FEA5E7201DF3
:101AD0006B005B199B001F4A9B181A1D9B88D90A33
:101AE0001C2907D15B055B15023359005118FFF71C
:101AF000A5FDDDE71D4B1E4AB121194801F06AFD25
:101B0000002912D1002A0ED0FF239371194B938024
:101B1000154A1378A371184B0E49641A6441634344
:101B20001B0D1370CEE70A4FF2E7201D1349FFF794
:101B3000A9FDC7E76A21124B084AFF31084801F0A6
:101B400049FD034F69E7C046240100D000ED00E0E5
:101B5000CD010010B40B00206C990010349A0010D5
:101B6000EC97001001BD0000E622002054990010FF
:101B7000549A001001BDFFFFAAAA0000EE0B00203E
:101B8000A099001070B5012101432E4BCB1A2F2BC9
:101B900028D8EFF30583002B2BD0EFF3108C72B60F
:101BA000294A1268002AFBD0BFF35F8F274A04003E
:101BB000244D641B64416243120D54B2244A92685E
:101BC0009B00D2588A421BD00022032A32D85300ED
:101BD0009B189B001B49CB189B795BB2A3421FD07B
:101BE0000132F2E7C7211B4B1B4A49001B4801F099
:101BF000F1FC92211A4B184AFF31184801F0EAFC17
:101C0000134A92681749D150174B1A7882711C7089
:101C1000BFF35F8F0C4B00221A608CF3108870BDED
:101C20000D005300991889006918FF268E710F4A1C
:101C30008A80E9E7D1210E4B074A4900074801F0A5
:101C4000C9FCC046B40B0020240100D0AAAA0000A1
:101C500000ED00E0A8990010009A0010EC97001029
:101C6000D0990010CD010010E622002001BDFFFF39
:101C7000DC9900100022044B02E0044902C3013247
:101C8000072AFAD97047C04600E400E080808080CF
:101C900000B583B00100064B0093052300220548E0
:101CA000FFF761FC002801DB1F23181A03B000BDF9
:101CB000E4990010EB220020024B9C46614489000D
:101CC000016070474000003410B50400FFF784FC49
:101CD00001002000FFF7F0FFFF232371BFF35F8FA8
:101CE00010BD10B50400FFF777FC01002000FFF7DE
:101CF000E3FFFF23237100236371BFF35F8F10BDE8
:101D0000034B9C46614489000160BFF35F8F7047BD
:101D10004000003410B504000120FFF76BFC010007
:101D20002000FFF7EDFF10BD70B505000C000800A6
:101D300000F000FF0949200000F040FEFFF74CFCD6
:101D4000074B9C466044800068602C75D0231B06BE
:101D50001B786B75A400034BE55070BD6D2000101F
:101D600040000034902000200A4B1A68EFF31081E5
:101D700072B61368002BFCD0BFF35F8F054B1B6856
:101D8000BFF35F8F00221A6081F3108840BF0020EC
:101D900000217047AC22002010B5002922D0036832
:101DA0001B7B99421ED8174B9C46614409018368EE
:101DB0009C4661440C684968002A19D003681B7B63
:101DC0009A4215D883680F488446624412019A18D3
:101DD00010685368020001208B4201D80ED0002009
:101DE000C0B210BD084B094A3C21094801F0F2FB82
:101DF000054B064A3C21064801F0ECFBA242EFD815
:101E0000EDE7C046FFFFFF0F649C0010E49E00104A
:101E1000109C001010B500291ED0037B99421BD8DE
:101E20004B005B18033B0468A4466344002919D0A7
:101E3000002A1DD0914221D0002A25D0047BA24245
:101E400022D804685000801803382018817019784F
:101E500000291FD11A7010BD104B114A682111487A
:101E600001F0B8FB104B114A6F310E4801F0B2FB84
:101E70000F4B0E4A70210B4801F0ACFB0D4B0B4A87
:101E80007121084801F0A6FB044B054A682105486A
:101E900001F0A0FB41701A70DDE7C046889C00107D
:101EA000509F0010A49C00100C9D00102C9F00104F
:101EB000189D0010249D001070B506000D00140040
:101EC000002914D0002A14D080687368984700282D
:101ED00006D0220029003000FFF79CFF280007E011
:101EE0002A0021003000FFF795FF200000E01000DD
:101EF00070BD0800FCE70000F0B583B0050000925B
:101F000001930AAB1C780BAB1F78002C26D003681A
:101F10005A7B944207D10123002B19D1002C3BD1CD
:101F2000200003B0F0BD002C0CD01A7B944209D8DD
:101F30001A6863001B19033BD3189B78002BEBD066
:101F40000123E9E73E4B3F4A68213F4801F042FB4D
:101F50003E4B3F4A67213F4801F03CFB03689C7BB6
:101F6000002CDBD012D01A7B94420FD862001219D9
:101F7000033A19688C46624451789973002900D15C
:101F8000D9730023937053701370C7E72C4B2D4AFD
:101F900068212D4801F01EFB002C3AD02B681B7BDA
:101FA0009C4236D82C4BE3181B01AA689446634424
:101FB000009A1A60019A5A60089A9A60099ADA603F
:101FC0002E68002C2BD030D0337B9C422DD8630060
:101FD0001B19033B32689446634400229A705A707E
:101FE0001A70717B22003000FFF766FF7073844225
:101FF00000D095E7287D009A019B00F027FD061E82
:1020000001D0002F17D00C9B002B00D188E71E7049
:1020100086E7124B124A3C210E4801F0DBFA114BC5
:10202000114AA521084801F0D5FA054B054A682157
:10203000054801F0CFFA2868210000F03FFFE2E7F1
:10204000889C0010509F0010A49C00103C9D001024
:102050005C9F0010109C0010FFFFFF0F649C00109D
:10206000E49E00100C9C0010409F0010F0B5DE466E
:1020700057464E464546E0B58BB00990002308937D
:102080008200B54BD658370052E0B44BB44A3F21DA
:10209000B44801F09FFAB44BB44A3C21B44801F073
:1020A00099FA002901D1002869D10021404600F0A9
:1020B000FBFEA04219D12A686B6806920793AB68B1
:1020C0009846EB689A464346002B14D0002C18D053
:1020D0003B681B7B9C4214D8631EFA68D35C089350
:1020E0001B0218433861002015E0A24BA24A8E2142
:1020F0009F4801F06FFAA14B9F4A92219C4801F042
:1021000069FA994B9E4A4121994801F063FA0023EC
:102110009A46984600207B68BFF35F8F00221A60C2
:1021200086F310884346002B32D1002800D10CE101
:1021300000F000FC02000B1EA7DB0020002106902F
:1021400007917868EFF3108672B601680029FCD019
:10215000BFF35F8F396888464C7B002CD7D09AD06C
:10216000097B8C4297D8874965182D01B9688C4640
:10217000654428686968801A9941002991DD2A68B8
:102180006B68099800F062FC00239A469846C2E703
:10219000089B1B022343994651461800C04705007F
:1021A0000E007A68EFF3108B72B6136859424B41F8
:1021B000D9B2002BF9D1BFF35F8F002E1EDB002EAA
:1021C00046DD3B69002B47D04B456DD100F0B2FB9B
:1021D00002000B1E6EDB52197341002B70DB002BCB
:1021E00072DB002104910131039102945146019167
:1021F000414600913800FFF77FFE4CE03B69002B21
:10220000DDD04B4514D1069A079B521BB341002BDE
:1022100014DB002B16DB00210491013103910294A1
:1022200051460191414600913800FFF765FE32E0CA
:10223000554B514AA1214E4801F0CCF9012252429E
:10224000524BE6E7454B464A3F21464801F0C2F96A
:10225000002E01D1002DB4D13B68002C50D05A7B08
:10226000944237D1012100294AD1DA7B002A4DD18D
:102270009A7B002A03D1DA7B002A5AD19C73DC7343
:10228000002C5CD03B681B7B9C4258D8FA68013C10
:10229000135D0133135500233B617A68BFF35F8FF1
:1022A00013608BF3108843E7374B334AA42130483F
:1022B00001F090F9294B2A4A3F212A4801F08AF976
:1022C00001225242314B8AE7244B254A3F212548BF
:1022D00001F080F9002C0DD01A7B94420AD86200DC
:1022E0001219033A1868844662449278002ABAD0D8
:1022F0000121B8E7264B274A6821274801F06AF9EF
:10230000264B274AF621244801F064F9002A0AD016
:10231000197B8A4207D851008A18033A19688C46FB
:1023200062445470A4E71A4B1A4A68211A4801F013
:1023300051F91C4B1A4AFB21174801F04BF90A4B83
:102340000F4A41210A4801F045F90BB0F0BCBB46E9
:10235000B246A946A046F0BD90200020089B001080
:10236000B09E0010249B0010649C0010E49E00109E
:10237000109C0010649D0010C89E00107C9D0010F1
:10238000089F0010FFFFFF0F889D0010FFFFFF7FD9
:10239000889C0010509F0010A49C0010C49D001049
:1023A0001C9F0010E89D001010B50C4B5B68002BC3
:1023B00004D00A210A48FFF77FFC10BD074C230018
:1023C000084A1021206800F07FFC032000F0A6FAE4
:1023D00003212000FFF7A8FCEBE7C046FC0B002020
:1023E000AC220020991D001010B5064B5B68002B35
:1023F00001D0044810BD044B044A5E21044801F09A
:10240000E9F8C046FC0B0020FC9D0010F09E001077
:10241000109C0010F0B5DE4657464E464546E0B5E6
:102420008BB0804616001F00149B9A46159B994658
:1024300016AB1B789B461F2302AA944663440022D6
:102440001A702BE0002809D042461268127B904295
:1024500004D8421E4146C9688A5C41E0404B414A6B
:102460004121414801F0B6F807984CE0361BAF41D6
:10247000002F07DB002F11DA3C4B3D4A3F213D483E
:1024800001F0A8F8012676423B4FF3E7374B384A74
:102490003F21384801F09EF8002F4FDB43465A6831
:1024A000EFF3108472B6136859424B41D9B20791C9
:1024B000002BF8D1BFF35F8F1F3302AA9446634409
:1024C00004930023039302934B46019353460093D6
:1024D00032003B004046FFF70FFD031EB2D1020061
:1024E00041464968BFF35F8F00250D6084F3108873
:1024F000002B29D01F2302A98C4663441B78002B94
:10250000B2D112021043002B20D05B46002B1DD00D
:102510004946D04704000D0003000B431DD000299D
:10252000A4DB00F007FA06000F1EAFDB36196F417F
:10253000002FB1DA012676420F4FADE70B4B0C4A64
:102540003F210C4801F046F8012040420BB0F0BC9E
:10255000BB46B246A946A046F0BD0798F6E7C0467E
:10256000649C0010089F0010109C0010089B001035
:10257000B09E0010249B0010FFFFFF7FF8B5040001
:10258000002900D162E04268EFF3108572B613684B
:1025900058424341D8B2002BF9D1BFF35F8FCBB281
:1025A0002268567BB3421BD10120002848D0206905
:1025B00088422BD0090AC9B2002B2ED02068007B9C
:1025C00083422AD8581EE668305C88422BD000200F
:1025D0006368BFF35F8F00221A6085F31088F8BD2F
:1025E000002B0DD0167BB3420AD85E00F618033ECE
:1025F0001768BC466644B678002ED6D00120D4E7D2
:10260000134B144A6821144800F0E4FF2C21134BAB
:10261000134AFF31134800F0DDFF134B134A4121E9
:10262000104800F0D7FF1900100000F047FC002808
:10263000CED199210E4B0A4A49000A4800F0CAFF40
:1026400023698B42C4D100232361C1E70020C6E780
:10265000889C0010509F0010A49C0010209E001029
:10266000989E0010109C0010649C0010089F0010A1
:10267000449E0010407D7047F0B587B006000F0003
:10268000EFF30583002B1FD106246442E517A4193C
:102690007D418D4202D803D1844201D90024002516
:1026A000002D14DB0494059500F044F902000B1E84
:1026B00013DBA41A9D41002D17DC14D03000390023
:1026C00000F044F907B0F0BD234801F01DF8234B9A
:1026D000234A3F21234800F07DFF204B204A3F2121
:1026E000204800F077FF002CE8D0FFF77DFE0023A4
:1026F000029301931C4B0093049A059BFFF78AFEFB
:10270000002818DADAE7002300E00023002BD5D1F7
:10271000164B1A68EFF3108172B61368002BFCD0C9
:10272000BFF35F8F114B1B68BFF35F8F00221A60EE
:1027300081F3108820BF0499059A0D4B5B6A9A4279
:10274000E3D80B48806A884203D29A42DBD0012347
:10275000DCE70123DAE7C046489E0010089B001022
:10276000B09E0010249B0010691D0010AC220020B8
:102770000040054070B504000D0000F0DBF80200D9
:102780000B1E0ADB200029008018594100290ADBB2
:1027900000290CDBFFF770FF70BD084B084A3F2192
:1027A000084800F017FF012040420749F0E7034BBB
:1027B000034A3F21034800F00DFFC046089B00106C
:1027C000B09E0010249B0010FFFFFF7F10B5FA227F
:1027D00092000023002102F0FFFEFFF7CBFF10BDA7
:1027E00070B584B005000C00EFF30583002B1ED1FB
:1027F000FFF7FAFD002302930193224B00932A0076
:102800002300FFF707FE061E23DD20BFFFF7ECFDC8
:102810003100FFF7B3FE1C4B5B6A9C422DD81A4A6D
:10282000926AAA422CD29C4225D0012026E0164B67
:102830005B6A994209D8144A926A824207D2994245
:1028400001D001201AE0002018E0002016E001204D
:1028500014E00D4B5B6A9C4209D80B4A926AAA426B
:1028600007D29C4201D0012008E0002006E00020B1
:1028700004E0012002E0002000E0002004B070BD70
:102880000120FBE7691D00100040054070B5EFF323
:1028900005801038EFF3108C72B61A4B1B68002BB2
:1028A000FBD0BFF35F8F01221300834016494B63B7
:1028B00016490B60164909780C00C440224214D016
:1028C000114A546A8200134D5259944206D3820031
:1028D000114C125999430E4B197007E00A4A031D17
:1028E0009B0099589950002200E00022BFF35F8FAF
:1028F000044B002119608CF31088002A00D0904707
:1029000070BDC046280100D0004005403C70054025
:10291000EA220020B8220020B81A002010B50100D9
:10292000024A0348FEF706FE10BDC046749F001021
:10293000E5220020044B5B6A034A906A1900536A3F
:102940009942F9D17047C04600400540084B5B6A88
:1029500001E0074B5B6A8B42FBD301E0044B5B6AEF
:102960008B4203D1024B9B6A8342F7D37047C04628
:102970000040054070B504000D00FFF7DBFF0200CA
:102980000B0020002900801859418B4202D804D145
:10299000824202D901204042C117002902DBFFF721
:1029A000D5FF70BD024B034A3F21034800F012FEE1
:1029B000089B001038A00010249B001070B5040084
:1029C0000D00EFF3108672B61B4B1B68002BFBD07B
:1029D000BFF35F8F002D1CD02000FEF79FFE174B2A
:1029E00083420BD019002000FEF7B2FE0121200027
:1029F000FEF784FE0123A340114A1360A400114B8B
:102A0000E550BFF35F8F0C4B00221A6086F31088ED
:102A100070BDA2000B4B0021D1500122A2400A49F7
:102A20000B7893430B7005492000FEF7D5FF00217A
:102A30002000FEF763FEE4E7280100D08D28001097
:102A400038600540B81A0020EA220020F0B5DE46C2
:102A500000B584B00400150001921E000293FFF738
:102A600069FF03958E4202D84ED185424CD9EFF3CF
:102A7000108B72B6274B1B68002BFBD0BFF35F8F08
:102A8000254A17780125A540EBB23B431370234B31
:102A90005D63221D92000199D150A2002049029845
:102AA00050501B6A2B4212D11C4B1B6C2B4208D07E
:102AB0000020BFF35F8F174B00221A608BF3108842
:102AC00023E0184B184AC521184800F083FDFFF792
:102AD00031FF8E4214D802D1039B834210D80E4B93
:102AE0001B78BB420ED00D4B1D625D631F2004405E
:102AF0000123A3400E4A1360074B1F701E38D8E70E
:102B00000020D6E70120D4E7012004B080BCBB46FA
:102B1000F0BDC046280100D0EA2200200040054058
:102B2000B8220020989F00101CA00010BC9F00102D
:102B300080E200E0EFF3108C72B60B4B1B68002BA9
:102B4000FBD0BFF35F8F01238340084A136208491B
:102B50000A789A430A70BFF35F8F034B00221A6012
:102B60008CF310887047C046280100D00040054013
:102B7000EA22002010B500291ED0037B99421BD801
:102B80004B005B18033B0468A4466344002919D03A
:102B9000002A1DD0914221D0002A25D0047BA242D8
:102BA00022D80468500080180338201881701978E2
:102BB00000291FD11A7010BD104B114A682111480D
:102BC00000F008FD104B114A6F310E4800F002FD75
:102BD0000F4B0E4A70210B4800F0FCFC0D4B0B4ACA
:102BE0007121084800F0F6FC044B054A68210548AD
:102BF00000F0F0FC41701A70DDE7C046889C0010C0
:102C000058A10010A49C00100C9D001044A10010BD
:102C1000189D0010249D001070B506000D001400D2
:102C2000002914D0002A14D08068736898470028BF
:102C300006D0220029003000FFF79CFF280007E0A3
:102C40002A0021003000FFF795FF200000E010006F
:102C500070BD0800FCE7000010B50023437301338A
:102C60008373037BC3730123027B9A4214D9002B25
:102C70000CD0027B934209D85A00D218033A01685B
:102C80008C4662440133DBB25370EDE70B4B0C4AC8
:102C900068210C4800F09EFC002A09D0924207D817
:102CA000016853009A18033A8A180023537010BD24
:102CB000024B034A6821034800F08CFC889C0010FA
:102CC00058A10010A49C001010B5017342608360ED
:102CD000FFF7C2FF10BD000070B50400081E00D150
:102CE00070BD002934D0237B994231D84B005B184A
:102CF000033B2268944663445A78002AF0D02DD0D2
:102D0000237B9A422AD853009B18033B21688C46A8
:102D100063445D7800215970002825D0237B9842B8
:102D200022D843001B18033B21688C4663440021D2
:102D3000597001002000FFF76FFF060029002000F6
:102D4000FFF7CAFF020031002000FFF765FFC7E769
:102D5000084B094A6821094800F03CFC054B064A2B
:102D60006821064800F036FC024B034A68210348FC
:102D700000F030FC889C001058A10010A49C0010AA
:102D800070B505000C00160000292FD034D0037B4D
:102D9000994231D84B005B18033B02689446634468
:102DA0005A78002A2ED19A78002A31D11978FFF763
:102DB00093FF0300002E0AD0EA7B002A2ED1AA7BC3
:102DC000002A03D1EA7B002A3BD1AC73EC73002BC1
:102DD0003DD1002C4FD02B7B9C424CD82B686100FE
:102DE0000C19033C1C190023637070BD254B264A47
:102DF0003821264800F0EEFB254B264A682126485C
:102E000000F0E8FB254B204A3A21204800F0E2FB85
:102E1000234B1D4A3B211D4800F0DCFB002A0AD051
:102E2000297B8A4207D851008A18033A29688C46C0
:102E300062445470C3E7164B164A6821164800F0E6
:102E4000C9FB184B104A4221104800F0C3FB002B6D
:102E50000BD02A7B934208D843001B18033B2A68F7
:102E60009446634400229A70B3E7094B094A6821EB
:102E7000094800F0AFFB064B064A6821064800F0FF
:102E8000A9FBC04650A0001030A1001058A00010AF
:102E9000889C001058A10010A49C0010ACA0001049
:102EA000D4A00010E89D001070B504000A00457B16
:102EB0002900FFF765FF6073280070BD70B504003E
:102EC000002967D0437B8B420ED0002911D0037BB1
:102ED00099420ED84B005B18033B0268D0188378E8
:102EE000002B0CD1002056E00121FFF7DDFF01206F
:102EF00051E0294B294A6821294800F06BFB002B3F
:102F000020D0227B93421DD85A00D318033B22685D
:102F1000D2182568EB5C8B421AD0002B1BD0227B89
:102F2000934218D85A00D318033B2268D21853781A
:102F30008B4216D0002BF0D11A4B1B4A6B211B4839
:102F400000F048FB144B154A6821154800F042FB7D
:102F50004378137007E0104B104A6821104800F0C6
:102F600039FB4378537000238370437001222000A3
:102F7000FFF706FF0200617B814205D02000FFF7CA
:102F80004BFE6073012006E0094B074A7121074898
:102F900000F020FB002070BD889C001058A100109C
:102FA000A49C0010DC99001018A1001058A000107B
:102FB000F8A0001070B5046BE30701D4200070BDC9
:102FC00002003032C0239B0113430A4A1A60456A4B
:102FD000826AAD01AD18AD02062000F0BDF90649C8
:102FE00001F0BEFC0100280001F0BAFC0021FFF74F
:102FF000C1FCE3E7010300004E0E000070B50400C1
:103000000E001500FFF7D6FF22002C32E16A4E4079
:10301000354080235B0113431D60206370BD0000B9
:1030200070B505000C00062000F096F9C0002100E4
:1030300001F096FCC60908D00E4B9E4216D87F239D
:10304000184001303400460800E001246C62AE6292
:10305000002200212800FFF7D1FF062000F07CF9B4
:103060008000A101891901F07BFC70BD0026024C93
:10307000ECE7C046FEFF0000FFFF000010B5053979
:103080004901013AD2001143002B09D002220A4320
:10309000012B07D0002111436E22FFF7AFFF10BDB7
:1030A0000022F4E70421F6E7002909D00A22064BA2
:1030B0009C466044434258414000044BC252704712
:1030C00080225200F3E7C0460080FCBFC8220020E7
:1030D00070B505000C00062000F03EF9061E27D052
:1030E000164B9D4226D08022D203154B1A60154BF9
:1030F0001A60154B9B6811009943FAD100212800F2
:10310000FFF7D2FF21002800FFF78AFF0600002307
:10311000012208212800FFF7B1FF2A002C3280236A
:103120009B01134310221A60084B2B630323AB64EB
:10313000300070BD80221204D7E7C04600800340F3
:1031400000E0004000F0004000C00040010300002B
:10315000F8B5DE4657464E464546E0B505000F0039
:1031600092460A9A934250D31A0E91461E020A9A28
:1031700000233000494601F031FC80466C006419A0
:10318000A400304B9C4664446368834200D2606074
:103190002B1FDBB29B46012B3DD9C0239B01234350
:1031A000802212011A60AB00274A9958002907D0E3
:1031B000506901F0D5FB431C5800C0180338FDD2FC
:1031C00053465A0123685A40E0231A4080235B018A
:1031D00023431A605A46012A28D980239B0123439E
:1031E000802212011A604346636042460023300089
:1031F000494601F0F3FBAD00134B58510120F0BCE0
:10320000BB46B246A946A046F8BD104B104A332132
:10321000104800F0DFF9012FBFD1C0239B012343E9
:1032200003221A60A368DB07FCD5C9E7216879404F
:1032300003220A401A60A2680123BB401342FAD05D
:10324000CBE7C04600800040DC1B002064A10010DA
:10325000D8A1001078A1001030B583B00C2000F088
:1032600011F9FEF747F900280DD0002304E099007A
:103270002D4A2E4888500133092BF8D92A4B2C4A65
:103280005A6203B030BD2B4B00229A6700F06CF9F4
:10329000294B01221A60274B5B6C012BFBD1274B7A
:1032A00003221A60234B9B6B012BFBD1013300934C
:1032B0000433234A0121234800F054F805230093E6
:1032C000214A0121214800F04DF8214B00930022B2
:1032D00002210420FFF73CFF1E4D00952B00002229
:1032E00001210520FFF734FF104C00942300002239
:1032F00000210720FFF72CFF00942300002200216B
:103300000820FFF725FF0A4B00932300002200212D
:103310000920FFF71DFF00952B0000220021062049
:10332000FFF716FFADE7C046DC1B0020006CDC0297
:103330001BB70000008000403CB0004030B00040AF
:10334000002F685900800240008C864700C0024070
:10335000001BB700405973078000014BC0587047ED
:10336000DC1B0020F0B5C64600B504000E001700B7
:103370001D00374801F0F4FA8046364BFA18364BF8
:103380009A4239D80100380001F0EAFA0200103AF6
:1033900098235B009A4235D86B1E062B38D8069BC3
:1033A000013B062B34D83F09474537D32D04069BF4
:1033B0001A0315432368002B36DB284B9C4244D06C
:1033C00080225201264B1A60264B1A60264B9B68BE
:1033D00011009943FAD12660A060231DC0229201FA
:1033E0001A43212313602368002BFCDAE5600823CD
:1033F000136080BCB846F0BD1C4B1D4A11211D480E
:1034000000F0E8F81C4B1A4A19211A4800F0E2F8BB
:103410001A4B174A1C21174800F0DCF8184B144AC5
:103420002321144800F0D6F822683F231340B3420A
:10343000C3D1A3681B051B0D8342BED1E368EE22F6
:10344000D2021340AB42B8D1D3E780229201B9E750
:10345000001BB70080E84BD380F8A93200C00240BF
:1034600000E0004000F0004000C00040E8A1001073
:1034700028A3001048A20010A4A20010C0A20010AF
:103480000CA3001080239B000343014AD3627047C2
:1034900000800540024B1A68024B5A607047C046D4
:1034A000802000200080054010B50200164B8020CF
:1034B000C0051860154B1648186000290AD0154B36
:1034C000E021C9041960002A09D1124B802212069A
:1034D0001A6010BD0C4BE021C9041960F3E75301D9
:1034E0009B1A9800801800010B4B186080235B0426
:1034F000984202D3084B094A1A60FFF7CBFF054BED
:103500008022D2051A60E4E700B00540082001409F
:10351000FCFF010000A0054080200020FFFFFF000D
:1035200010B5030010000C4A8024E4051460002B41
:103530000DD001221343094A094CD461094C5C4067
:103540001462516293620021FFF7AEFF10BD034B7E
:103550000022DA61F7E7C04600B005400080054070
:10356000D3C007B02D3FF84F064BAA2212011A60B4
:103570002F22DA60044B054A1A60024B5B68002B6D
:10358000FBDA7047004002400060024000B0FA00E1
:1035900000BEFDE703000A4A1268002A08D0084A64
:1035A0001068C318074A9A4206D3054A1360704749
:1035B000034A05491160F2E701204042F7E7C0469F
:1035C0007C1C002000000420EC22002010B5FFF736
:1035D000DFFF000010B582B00C001900002A0CD0EB
:1035E000084B002A0BD001920093230002000648EA
:1035F00002F09EFA0120FFF7CBFF044BF1E7034AEC
:10360000F1E7C04634A3001044A300103495001025
:1036100070B52B4B2B4A1A602B4B2C4A1A602C4B43
:103620009A682A4B9343FAD12A4C01E008CC984778
:10363000294B9C42FAD3FFF70FFE234B274A1A600F
:10364000234B9B68DB43DB01FAD1254B40229A6771
:103650005A671A67DA66234C09E0234B234A87210D
:103660002348FFF7B7FF2000FEF72EFB0834214B5D
:103670009C4209D22368002BF5D0012BEDD120000C
:10368000FEF72FFB0834F2E71B4CA1681B4DC0224C
:10369000280002F0E7F8A560EFF30583002B00D0C7
:1036A00000BEFDF789FFFEF7E5FAFEF77DFE144C3C
:1036B00001E008CC9847134B9C42FAD370BDC0463A
:1036C00000E00040BFCDFBFE00F00040FE7F3C006C
:1036D00000C000400015002010150020FFFFFF0172
:1036E00000F00140F814002074A3001004A400109E
:1036F00094A300100015002000ED00E00000002061
:1037000010150020181500200FB400B583B008482C
:1037100002F0DEF9049B002B07D005A901911800E7
:1037200002F0E6F9034802F0D3F90120FFF730FF79
:10373000F4A30010709200109A4200D2885470478F
:10374000704710B5002802D00B684968984710BD33
:103750000100002007E083001B185B00501C08607C
:103760001078C01830380A681378303BDBB2092B68
:10377000F1D97047F0B5DE4657464E464546E0B5AE
:1037800083B093461F000C9B9A460D9C0E9B994656
:103790000F9B9B0703D0B8460F00060022E0019262
:1037A000A34688464E46B9460700B44207D2551C88
:1037B0004B4641462020B84701342A00F5E73D003A
:1037C0004F465C46019B9B46B1464646B84637008D
:1037D0002E0007E0013C551C5346185D4346390056
:1037E000B0472A00002CF5D135003E0047460F9B1C
:1037F0009B0707D4100003B0F0BCBB46B246A946F5
:10380000A046F0BDB0464E46B9462F005D46531B5C
:10381000B342EFD2541C4B4641462020B847220009
:10382000F5E7F0B5CE46474680B585B09446984654
:103830000C9D0D9C0EAB1B789946109A119B129E05
:10384000B7071CD4002B0CD0F7070AD54F46002F22
:1038500002D10C37374204D0013B02E030272F550C
:103860000134944201D21F2CF8D9F70707D59C42A6
:1038700005D21F2C03D830272F550134F5E7F70662
:1038800015D5770505D4002C03D0944224D09C4252
:1038900022D00F9A102A2BD00F9A102A30D00F9ACC
:1038A000022A35D01F2C02D830222A5501341F2C71
:1038B00005D84A46002A31D02D222A5501340396D4
:1038C00002930194009543466246FFF753FF05B00B
:1038D000C0BCB946B046F0BD621E012C06D00F9F99
:1038E000102F01D01400D4E7023CD2E71400D0E737
:1038F000B206D1D41F2CCFD878222A550134D1E773
:10390000B206CCD51F2CCAD858222A550134C9E793
:103910001F2CC7D860322A550134C3E7720703D57C
:103920002B222A550134CAE73207C8D520222A554E
:103930000134C4E7F0B5DE4657464E464546E0B58D
:1039400093B081468A46089209931CAB10CB1B7832
:103950009B461E9D219B9846002C03D11023424676
:103960009A4390468023DB0046461E4042461A4258
:1039700012D0002C22D000260EE03033D9B2771CB2
:103980000AAB99552900200000F0EAFFAC4216D39B
:103990001F2F14D83E0004002900200000F0E0FF93
:1039A000CBB2092BE9D94246920605D54121C91867
:1039B000C9B20A39C9B2E2E76121F8E727004346F4
:1039C0000693209B05931F9B049303955B460293EC
:1039D00001970AAB0093099B089A51464846FFF7A6
:1039E00020FF13B0F0BCBB46B246A946A046F0BDCE
:1039F000F0B5DE4657464E464546E0B595B00890D0
:103A000009910A920B931E9E1F9C20AB1B789B462C
:103A1000229B9946239D269B9A463300234303D13C
:103A2000103352469A4392468023DB0057461F408C
:103A300052461A4219D0330023432DD0002714E0F8
:103A40003033DAB27B1C98460CABDA554A462B0071
:103A50003000210000F0C2FFA5421FD819D0434614
:103A60001F2B1BD8474606000C004A462B0030008F
:103A7000210000F0B3FFD3B2092BE1D952469206E0
:103A800005D54122D218D2B20A3AD2B2DAE761227F
:103A9000F8E7B145E3D901E0002398465346069381
:103AA000259B0593249B04934B4603935B4602930B
:103AB000434601930CAB00930B9B0A9A0999089813
:103AC000FFF7AFFE15B0F0BCBB46B246A946A04614
:103AD000F0BD0000F0B5DE4657464E464546E0B51F
:103AE00091B083468A460C9298461A9C08941B9D76
:103AF000099522002B002000290001F0FAF9002886
:103B000000D0E5E001225242D74B2000290001F00D
:103B1000EBF9002800D0DBE001225242D34B200019
:103B2000290001F0CBF9002800D0D1E000220023C9
:103B3000089E3000099D290001F0C0F9002800D03E
:103B4000DDE008980999069007918023DB001E9A12
:103B50001A400D921E9A1A4201D106231C93069810
:103B6000079904000D000A000600024300D1D1E0CD
:103B7000080D4005400DBE4CA44660440A03120BDC
:103B8000BC4B13431F0001F0C7F9BB4ABB4B01F00C
:103B900052F9BB4ABB4B01F027F904000D0000228B
:103BA000B94B3000390001F016F9B84AB84B01F0B2
:103BB00042F902000B002000290001F015F901F084
:103BC000C3F9814601F0A8F904000D00B14AB24BD7
:103BD00001F031F90022B14B01F006F901F0B4F91E
:103BE0000600AF4AAF4B2000290001F024F9040081
:103BF0000D00300001F090F9AB4AAC4B01F01BF91D
:103C000002000B002000290001F0E5F804000D007F
:103C100002000B0001F00FF90A900B91A44BF3186E
:103C200000261F0522002B002000290001F0DCF8EF
:103C30000E900F9122002B0000208021C90501F079
:103C4000CAF804000D0000229A4B0A980B9901F063
:103C5000D4F80022984B01F0C7F802000B000A9834
:103C60000B9901F0CAF80022944B01F0BDF8020054
:103C70000B000A980B9901F0C0F802000B0020001D
:103C8000290001F0B1F802000B000E980F9901F025
:103C9000B4F80022774B01F0A7F832003B0001F0A6
:103CA000CAF806000F0004000D00069A079B01F0F9
:103CB0001BF9002830D001235B429C46E1440022DE
:103CC0007D4B3000390001F098F804000D0023E02E
:103CD0001E9B04931D9B03931C9B0293089A099BB4
:103CE0000092019343460C9A5146584600F0FCF866
:103CF00011B0F0BCBB46B246A946A046F0BD0023B9
:103D0000002406930794069680231B069C46654470
:103D100007951AE7002399464B466333C62B1ED8F6
:103D200004261E9B1B0526D52B0023430FD0644A77
:103D3000644B0698079901F0CFF8002879D000224B
:103D4000614B0698079901F0B9F8002871D01C9BC7
:103D50004B4506DD4A46981A431E1C9303E0052690
:103D6000DFE700231C938023DB001E9A1A431E9278
:103D70000026002399461D9B9E4264D29F1B02236E
:103D80001E9A1A400A921E9A134202D0002E00D0A8
:103D900000274B46002B07D022002B0006980799DE
:103DA00001F02BF80690079100220023089809994A
:103DB00001F084F8002848D1444B1E9A1340049324
:103DC00003971C9B0293069B079C00930194434618
:103DD0000C9A5146584600F087F8002E00D187E72C
:103DE0001E9B9B063DD54525441C4346020051467B
:103DF0002800D8474B46DA179B18534005220592F6
:103E0000013E0496002203920A3202924A46D00FE3
:103E1000019000934346220051465846FFF78AFD21
:103E20000A9B002B00D163E702005F460C9E1D9D9C
:103E300054E01C9B002B9ED00D9B002B9BD01C9B09
:103E4000013B1C9397E7002799E7069C079D2200FA
:103E5000290080200006844661440B0006920793E7
:103E6000AAE76525C0E7C046FFFFEF7FFFFFEFFF32
:103E700001FCFFFF0000F03FFB799F501344D33F4C
:103E8000B3C8608B288AC63F0000F83F61436F6368
:103E9000A787D23F71A379094F930A400000E03F02
:103EA0001655B5BBB16B0240EF39FAFE422EE63F24
:103EB000FF03000000002C400000244000001840D8
:103EC0002D431CEBE2361A3F80842E41FFF7FFFFA3
:103ED000541C434651462020B8472200931BAB4256
:103EE000F6D3100004E7C046F0B5DE4657464E460E
:103EF0004546E0B595B00690079193469946209FB8
:103F00001E9A1F9B1000190000F0F3FF002831D10A
:103F100001225242BF4B1E981F9900F0CFFF00288C
:103F200037D101225242BC4B1E981F9900F0DCFF92
:103F300000283DD10022B94B1E981F9900F0D4FFF4
:103F4000002850D10022B64B1E981F9900F0B6FFF2
:103F5000002848D1002200231E981F9900F0AEFFD0
:103F6000002850D100239846229B5B0500D4B6E080
:103F7000002458E0229B0393219B02930323019387
:103F8000A84B00934B465A4607990698FFF7F2FB59
:103F90000EE1229B0393219B029304230193A24BE6
:103FA00000934B465A4607990698FFF7E3FBFFE05C
:103FB0000423229A1A4022990B4210D09B4B002ACC
:103FC0000FD004222299039121990291019200932A
:103FD0004B465A4607990698FFF7CCFBE8E0944B0E
:103FE000EDE70322EEE7229B0493219B03930297C4
:103FF0001E9B1F9C009301944B465A4607990698B6
:10400000FFF768FDD4E01E9A1F9B0020002100F0FE
:10401000E2FE1E901F9101239846A5E70CAB3022CB
:104020001A55013F01341F2C01D8092FF6D81E98CC
:104030001F9900F089FF050000F06EFF02000B00E1
:104040001E981F9900F0C7FEFA007A4B9B181A6859
:104050005B680A920B9300F0EEFE0890099100F065
:1040600097FF060000F054FF02000B000898099922
:1040700000F0B1FE0890099100226F4B00F034FF70
:1040800000282ED00136300000F042FF02000B0065
:104090000A980B9900F018FF002801D0013500267E
:1040A000002F2CD1280000F037FF02000B001E98D3
:1040B0001F9900F090FE06000F0000225E4B00F0FA
:1040C000FDFE002846D100225B4B3000390000F095
:1040D0000BFF00283ED1EB073CD501353AE006271F
:1040E00046E70022544B0898099900F0E7FE0028A3
:1040F000D6D1002E01D0F307D2D50136D0E7AA469B
:104100001F2C11D8013F0A21300000F029FC651C4A
:1041100030310CAB19550A21300000F021FC092E7A
:104120000ED906002C00EBE755461F2C0CD87B1E41
:10413000002F09D00CAA302111551F000134F4E7DB
:104140002B0055461C00F0E71F2C03D80CAB2E2289
:104150001A5501341F2C10D80A21280000F0D8FB72
:10416000661C30310CAB19550A21280000F0D0FB39
:10417000051E01D03400EDE734000323229A1340DA
:10418000012B1CD01F2C06D84346002B32D00CAB81
:104190002D221A550134229B0393219B02930194F3
:1041A0000CAB00934B465A4607990698FFF7E2FA84
:1041B00015B0F0BCBB46B246A946A046F0BD219B57
:1041C000002B13D04346002B02D10C3313420FD0E7
:1041D000219B013B2193190003E00CAB30221A55BF
:1041E00001348C42CED21F2CF7D9CBE72199F8E7C6
:1041F0002199F6E7229B5B0704D50CAB2B221A55BD
:104200000134C8E7229B1B07C5D50CAB20221A55E9
:104210000134C0E7FFFFEFFFFFFFEF7F65CDCD412A
:1042200065CDCDC120A4001024A4001018A4001056
:1042300014A4001010A600100000E03FF0B5DE4608
:1042400057464E464546E0B593B082468B4690466B
:104250001193002900D1EBE200275546119B1878F5
:10426000002800D1E7E2252809D07C1C43463A000B
:104270005946A847119B013311932700EEE70133FC
:1042800011930024119A11780B00203BD8B210280A
:1042900003D88300D048C3589F460B00303BDBB2A5
:1042A000092B2CD92A292FD000230A93119B1A7885
:1042B0002E2A39D000239A46119A1378683BD9B236
:1042C000122976D88B00C549CB589F4601231C4341
:1042D00001321192D6E702231C4301321192D1E739
:1042E00004231C4301321192CCE708231C43013202
:1042F0001192C7E710231C4301321192C2E711A8A3
:10430000FFF726FA0A90D1E71C9B1A1D1C92186829
:10431000002804DB0A90119B01331193C6E70223A6
:104320001C4343420A93F6E78022D20014435A1CEE
:1043300011925A781300303BDBB2092B04D92A2A98
:1043400007D000239A46B7E711A8FFF701FA824683
:10435000B2E71C9B1A1D1C921868002804DB8246D9
:10436000119B01331193A7E70020F8E780235B003E
:104370002343511C119152786C2A01D01C0018E083
:10438000C0239B001C430131119112E08023234381
:10439000511C11915278682A01D01C0009E0C023F9
:1043A0001C430131119104E080235B001C43013266
:1043B0001192119B18780300253BDAB2532A00D9D9
:1043C0002CE29300864AD3589F4680239B001C43CF
:1043D00001321192EDE780235B001C430132119200
:1043E000E7E7782809D0582838D06F2838D06228D5
:1043F00038D010239C430A2600E01026582833D0DA
:10440000692803D0642801D00C229443630501D5A8
:104410000122944369282AD0642828D0A30500D516
:104420009FE0E30500D5B8E0630600D4CAE01C9A1B
:10443000111D1C911168FF220A4005940A9B0493E8
:1044400053460393029600230193009243463A0099
:1044500059462800FFF76EFA070027E01026CDE73F
:104460000826CBE70226C9E720221443C8E7A305A4
:1044700020D4E30550D4630666D51C9A111D1C9107
:104480001168FF220A40D317D118594005940A9B9E
:104490000493534603930296D20F01920091434630
:1044A0003A0059462800FFF745FA0700119B0133EF
:1044B0001193D3E61C9BDA1D07218A4311000831B2
:1044C0001C91116853689C46DB170C930D930C9A52
:1044D0000D9B100048400E90624653400F930E987B
:1044E0000F990C9A0D9B801A99410E900F91089488
:1044F0000A9B07935346069304960023059363464D
:10450000DA0F02920090019143463A005946280082
:10451000FFF76EFA0700C9E71C9A111D1C9112687B
:10452000D317D118594005940A9B0493534603931B
:104530000296D20F0192009143463A005946280054
:10454000FFF7F8F90700B1E7230605D51C9A111DFE
:104550001C910023D25E96E71C9A111D1C911268D3
:1045600091E71C9BDA1D07218A43110008311C9139
:1045700008940A9B079353460693049600230593D9
:104580000293136854680093019443463A005946D5
:104590002800FFF72DFA070088E71C9A111D1C91CF
:1045A00005940A9B049353460393029600230193B8
:1045B0001368009343463A0059462800FFF7BAF9BA
:1045C000070073E723060DD51C9A111D1C91126874
:1045D0001204120C31E7C0462CA4001070A4001085
:1045E000BCA400101C9A111D1C91126825E74628D6
:1045F0001AD01C9B0733072293431A0008321C92DF
:1046000004940A9A0392524602925C681B680093D3
:10461000019443463A0059462800FFF765FC07001D
:10462000119B0133119319E620231C43E1E767280E
:1046300001D0472802D180231B011C43452801D00B
:10464000472801D120231C431C9B07330722934397
:104650001A0008321C9204940A9A0392524602925B
:104660005C681B680093019443463A005946280051
:10467000FFF730FA0700119B01331193EEE5022397
:104680001A002240924623421FD001241C9B1A1D6F
:104690001C927A1C9146187843463A005946A8471E
:1046A0005346002B16D1119B013311934F46D5E58C
:1046B000561C434659462020B847230032005C1C54
:1046C0009D42F5D83D001700E0E701233A002F0096
:1046D0000A9DF4E74A46A9460A9D06E0571C434650
:1046E00059462020C84734003A00661CA542F5D838
:1046F0004D469146D7E71C9B1A1D1C921B68994694
:104700005346002B00D1013B4E4601E00136130019
:104710003278002A02D05A1E002BF7D14B46F21AEB
:1047200010928023DB0026001E401C4203D052451D
:1047300001D95346109302231A0022400B922342C0
:1047400005D03A0037004C46A946554620E03A00CD
:10475000109B5F46B3462E0006E0551C43463900C9
:104760002020B04723002A005C1C0A999942F4D803
:1047700035005E46BB46109437004C46A946554668
:1047800006E01D000134561C43465946C847320016
:104790002078002804D0002FF4D06B1E002DF0D11B
:1047A00017004D460B9B002B03D1119B0133119336
:1047B00054E50A9F109B06E0561C434659462020AC
:1047C000A847230032005C1C9F42F5D81700ECE795
:1047D00021231C431C9B1A1D1C921B6800930594EB
:1047E0000823049353460393102302930023019359
:1047F00043463A0059462800FFF79CF80700119BF2
:10480000013311932AE57C1C43463A005946252082
:10481000A847119B0133119327001FE57C1C4346D9
:104820003A005946A847119B01331193270015E51B
:104830000A4B9A4610E5AA46474502D343465A1EFC
:1048400000E03A00434659460020D047380013B0F4
:10485000F0BCBB46B246A946A046F0BD41370010A9
:104860000CB410B584B00A0006AC08CC03940094D4
:1048700001000448FFF7E2FC04B010BC08BC02B021
:104880001847C0463937001000B585B00290039133
:104890000121009313004A4202A90248FFF7CEFC0F
:1048A00005B000BD4337001001480421014B1847F3
:1048B000300C0020D948001010B5010018231B88C7
:1048C00014221088984710BD10B5010018231B88CA
:1048D00016221088984710BDF0B5C64600B50700EF
:1048E0000E0000250123984600E00135B5420AD2AA
:1048F000AC003C192068FFF7DFFF20600028F4D1EE
:1049000000239846F1E7404680BCB846F0BD000061
:10491000124A936F9B0815D29066D166002905D084
:10492000FFE7FFE7FFE7516F106F704704B5802185
:104930000906C2175140002800D0C84304F060FBAC
:10494000002104BDF0B5146E556E576F166FFFF75A
:10495000E3FF1466556657671667F0BD000000D088
:10496000114A936F9B0813D210665166002905D037
:10497000FFE7FFE7FFE7516F106F704704B50028AE
:1049800001D00020C04304F03BFB002104BDC04621
:10499000F0B5146E556E576F166FFFF7E5FF14668E
:1049A000556657671667F0BD000000D094464A4A26
:1049B000926F9208624601D228E0C046F0B5464E9A
:1049C000346E756E776F366F00F020F89446424A69
:1049D00014665566576716676246F0BD94463E4AB0
:1049E000926F9208624601D254E0C046F0B53A4E4A
:1049F000346E756E776F366F00F04CF89446364A19
:104A000014665566576716676246F0BD002B24DBB7
:104A100011D000293EDA00B5C943404200D101312E
:104A200000F038F8C943404200D10131DB43524223
:104A300000D1013300BD002AEBD1002801D10029AB
:104A400005D00020C90FC90701D1C043410800B5F6
:104A500004F0C6FA0022002300BD00B500290ADBDD
:104A6000DB43524200D1013300F014F8C943404205
:104A700000D1013100BDC943404200D10131DB43C7
:104A8000524200D1013300F005F8DB43524200D11D
:104A9000013300BD002923D1002B18D1002A0CD0EE
:104AA000BC460D4F38667A6600210023FFE7FFE71A
:104AB000FFE77A6F386F67467047002801D00748D4
:104AC000010000B504F08CFA0022002300BD0200B2
:104AD0000B00002000217047000000D0FFFFFFFF07
:104AE000002B00D0BFE0130C28D1002AE7D080B4FF
:104AF000114F39667A66FFE7FFE730B4040C7B6F2D
:104B0000396F1B0423433B667A66FFE7FFE7FFE745
:104B1000C04684B27B6F3D6F1B0423433B667A66BD
:104B2000FFE7FFE7C04600232C042D0C7A6F386F97
:104B300000196941B0BC7047000000D0F0B5944640
:104B40000025140E01D112020835140F01D11201F3
:104B50000435940F01D192000235D40F01D15200D7
:104B60000135D40B0134254F7C66254C3C660E0C78
:104B700093B2FFE7FFE7FFE73C6F6643360C77032E
:104B8000BE467343DF0B5B04C01AB941130C734379
:104B9000DB18C91ACE086643360CB64493B2734389
:104BA0001F0F1B01C01AB941130C73431F0B1B05C8
:104BB000C01AB941860D8F023E436643360C092D5B
:104BC00024DB520A7243801A7703460A6643360C86
:104BD00016235B1BDE40DF40BF1964466643821B21
:104BE0007046043506330100D940A840C01900D3EF
:104BF0000131A24206D20023F0BD0000000000D027
:104C0000FFFFFFFF121B0130F3D3F1E709277F1BE2
:104C1000FE406446A2B27243801A00D20139220CCF
:104C20007243130C1204821A99410B00704604352A
:104C300013370100F940A840801900D30131002B3F
:104C400002D1A2420AD2F0BD013000D30131121BC1
:104C5000FAD2013BF8D1A24200D2F0BD013000D31C
:104C60000131121BF7E7F0B51C0C00D080E00CB44A
:104C700000251C0A04D11B02160E3343120208350C
:104C80001C0B04D11B01160F3343120104359C0B7E
:104C900004D19B00960F334392000235DC0B02D106
:104CA00092185B4101351C00971864410134464F4E
:104CB0007C66464C3C660E0CFFE7FFE7FFE7C0460C
:104CC0003C6F6643360C7703BE4697B27743C01BF2
:104CD00000D20139C01B00D201399FB27743C91BF2
:104CE000C91B170C77437E04FF0B801BB941CE080C
:104CF0006643360C0C2D33DBB644120B1F053A43CA
:104D00001B0B97B27743C01B00D201399FB2774388
:104D1000C91B170C77433E043F0C801BB941860D1D
:104D20008F023E43664329277F1BFE400C3D77469A
:104D3000AF40BF1930BCA2B2ABB272437343801A0A
:104D40009941220C7243130C1204801A99410200FB
:104D50000B000137001BA941F9D2781E0021F0BDDC
:104D60000C277F1BFE4077467F0BAF40FF19E0E723
:104D700000245D1C07D0144F7D663966FFE7FFE70E
:104D8000FFE7FFE73C6F95B29EB265436643401B69
:104D9000B141150C1E0C6543664336042F0C3E438F
:104DA0002D04401BB141994204D202000B002000A7
:104DB0000021F0BD01D19042F7D3801A994101340E
:104DC0009942F2D3F6E70000000000D0FFFFFFFF9A
:104DD00048404140484018B41B4B5B68FC46019377
:104DE00008BD04DFAB50001018B4174B1B68FC461D
:104DF000019308BD00DFB55000109446134A926F2E
:104E0000920809D2624618B40F4BDB68FC46019346
:104E100008BD0CDF6D5300100C4AF0B5146E556ED2
:104E2000576F166F6246FFF7EEFF084A1466556625
:104E300057671667F0BD18B4034B9B68FC46019397
:104E400008BD08DF11520010A8200020000000D08B
:104E5000FFB550404240504059404B40594000E05F
:104E6000FFB5154F4C00640D03D0BC4204D10C03B8
:104E700014D80020090D09055C00640D03D0BC4264
:104E800004D11C030AD800221B0D1B0501264B4030
:104E900009D44B4003D58B4200D18242FFBD9942D9
:104EA000FCD19042FFBD0B43DB1803431343F5D005
:104EB000C9434918FFBD0000FF07000000B5FFF718
:104EC000CFFF804100BDC04600B5FFF7C9FF01D943
:104ED000002000BD012000BD00B5FFF7B9FF01D9DA
:104EE000002000BD012000BD00B5FFF7B1FF8041EB
:104EF00000BD012040054A00121804D85A001218BB
:104F000001D8002070470120704700207047000042
:104F10000021002805D17047C1174840401AFAD037
:104F2000C90713B5064B1B6898470CBC441CA2402C
:104F30001005120B0349091B09051943114310BD44
:104F4000A82100201F04000010B54C00620D802332
:104F5000D218DB00D21A5B057E2A10DD9E3A13DAE6
:104F6000CC170903490819435242D1406400013467
:104F70001532202A05DAD0400843604310BD0020D6
:104F800010BD0846604310BDC80FC018013810BDE1
:104F900018B4044B5B6AFC46019308BD24DF1D5521
:104FA00000100000A820002070B513231C78012CED
:104FB00014D0012C14DC022C02DC1F4A1F4B9A6413
:104FC0001F48FFF779FC1F4B186070BD99001A4805
:104FD0001A4A885001331F2BF8D9EAE70023FAE771
:104FE0001948FFF771FC05001848FFF76DFC0238FF
:104FF00003789B007F2B19DD802229000F4800F0E9
:1050000031FC022CD7D1124B1A88B5231B029A42CD
:1050100009D1104B1A88104B9A4204D10F4B1A88B1
:105020000F4B9A42C7D00020FEF76EFB0D4B0E4A85
:1050300032210E48FEF7CEFA71500010A820002051
:105040004C330000A82100205344000053460000C8
:1050500054380000D8380000494600009C38000051
:105060005946000060A6001018A70010B4A6001052
:1050700007B56046002800D100BE01880A0A023048
:10508000DF2AFAD1C9B2820804D30288408800041A
:10509000104300E00068024A5050039007BD000032
:1050A000A82000200FB403BC0CBCF0B50124E40719
:1050B000634000E0F0B50C0DCF0F661E3605891B6E
:1050C000640503D3C943404200D30131640D03D0CA
:1050D000661CF60A07D0E41B00207F00791C8907B4
:1050E0008912803C24031D0DDF0F6E1E36059B1BAD
:1050F0006D0503D3DB43524200D301336D0D03D062
:105100006E1CF60A07D0ED1B00227F007B1C9B075C
:105110009B12803D2D032F1B661B58D4A446202EC6
:1051200046DA20371400BC401D00BD40F240334138
:105130002A4380185941CB0F05D0C943C0430022F0
:1051400064425041514162464D0D28D10D0D07D1A9
:1051500000281FD0241940414941013A0D0DF9D0D2
:10516000640006D3013000D30131002C01D1400886
:105170004000013A0BD4941CE40A04D112051144F6
:10518000DB071944F0BDD907204B194300E0D907CC
:105190000020F0BD0029DDD1002CDBD1F0BD0132B3
:1051A000C6074008CD0728434908002EE1D0D9E7BB
:1051B0003C2E29DA203E40371400BC4000D00124A8
:1051C000F24014431A00BB401C43D317ACE7AC4673
:1051D000202F08DA20360400B4400D00B540F84016
:1051E00039412843A5E73C2F0CDA203F4036040024
:1051F000B44000D00124F84004430800B1400C43FF
:10520000C117EAE710001900002494E70000F07FBE
:10521000F0B50C0D661E3605891BE60A6405640DA3
:1052200002D0651CED0A04D0002001210905803C54
:105230002403A4461C0D671E3F05DB1BE70A64051B
:10524000640D02D0651CED0A04D0002201231B0569
:10525000803C24037740644497B484B296B274438C
:10526000070C7E43150C6F4380B26843361802D397
:10527000012000043F183004350C00197D4184469C
:1052800088B29AB250430C0C62431F0C7C438EB21E
:105290007E43921902D301263604A4191604170C72
:1052A0003618674101BC81B29AB25143040C624383
:1052B0001B0C5C4380B25843121802D30120000437
:1052C00024181004130C401863412D185E4100206F
:1052D000474106BC88B293B258430C0C6343120C8E
:1052E000544389B251435B1802D301210904641865
:1052F00019041A0C091862416D18564100204741E3
:1053000018BCF902720D1143F0026A0D1043ED0250
:105310000A0D03D16D1940414941013B124E9B1BBF
:105320007600B3420ED26D0007D3013000267141E2
:105330006646354301D1400840001B05C918E40703
:105340002144F0BD0BDA013306D1013004D1013123
:105350004F0D01D04908F2E7E1070020F0BD01360A
:1053600031050020EBE70000FF030000F0B51C0D45
:10537000671E3F05DB1BE70A6405640D02D0661C4F
:10538000F60A04D0002201231B05803C2403D0250B
:105390002D060026F6432E661E096E66CE0FF61900
:1053A000B44649004F0D02D07E1CF60A03D00020FF
:1053B0000021403F3F033E1BB600B444013F7F0540
:1053C000C91B49082E6F013676089C02950D2543AE
:1053D0007543ED137543AD1301356D10F603761B60
:1053E0000CB4CC02450D2C43A2B2B3B25A43270CE5
:1053F0007B43350C6F43A4B26C431B1902D30124C9
:1054000024043F191C041D0CA4187D4124196D416E
:10541000009A91B2ACB26143170C7C432B0C5F43F2
:1054200092B25A43A41802D301221204BF182204D4
:10543000230C52187B41019C6C431B19520ED9015D
:105440000A434401A01A81B2B2B2514303145A4331
:10545000360C734387B27743D617D21900277E41A3
:1054600036049B191704160C7F185E417316ED184D
:10547000F301002680337541A90F06D16400690A43
:10548000E8055B0A184309D22FE0042294448033D4
:105490007541A90AA8059B0A184326D340414941F2
:1054A0002404009A019B0D005543641B4343E41AF6
:1054B00095B286B27543170C7E43030C5F4392B2DC
:1054C0005A43B61802D301221204BF183204330C17
:1054D00052197B4152429C41002C02D400220130DF
:1054E00051414008CA071043490802B06246D70735
:1054F0009210084BD218084B9A4203D21205891811
:10550000C919F0BD0020002A01DC3900F0BD0133CB
:105510001905F5E7FD030000FE070000002200B5B5
:10552000203200F004F8080000BD000000220B1536
:105530000AD410B5944600F031F81414013400DA9E
:105540000021CB17144C20470020002170476244F3
:10555000343A0CD40C2A07DA0400914090405242AD
:105560002032D440214310BDD843D94310BD20324E
:1055700007D40C469440524220321141D04020437F
:1055800010BD0800C917203203D452422032104106
:1055900010BD1800190010BD4F5500100A0DCC0F9A
:1055A000531E1B05C91A520503D3C943404200D3F9
:1055B0000131520D03D0531CDB0A07D0121B00200F
:1055C0006400611C89078912803A1203014BD21AC8
:1055D00070470000FF03000051434343C9188C4645
:1055E000110C83B24B4310B4040C614392B280B2ED
:1055F000504362431C041B0C001910BC5941130496
:10560000120CC018514161447047000048404140AD
:10561000484000239C46114B5B68184700239C467A
:105620000E4B1B6818470E4A936F9B0804D2002349
:105630009C460A4BDB681847F0B5146E556E576FE1
:10564000166FFFF7F4FF064A14665566576716672C
:10565000F0BD00239C46014B9B681847AC210020FD
:10566000000000D0C10FC90700D54042002817D064
:10567000F44603B40B4B1B68984706BC81409E3828
:105680004042803107D20B0607D04900490AC005C5
:105690001043084360470130F8E7490A8902F5E7FB
:1056A00070470000A8210020034BDB6FFC46184721
:1056B0007CDFED5700100000AC21002070B51323F3
:1056C0001D782A48FFF700F90400012D11D0012DA3
:1056D00009DDA31E1B789B007F2B40DD802221006B
:1056E000234800F0BFF82348FFF7E6F8224B186084
:1056F00070BD542201001E4800F0B4F81F4B1A88F8
:105700001F4B9A421CD1A7239B011A881D4B9A421A
:1057100016D11D4B1A881D4B9A4211D11C4B1A8869
:1057200094239B019A420BD11A4B1A881A4B9A4226
:1057300006D11A4B1A681A4B9A4201D1152307E079
:105740001848FDF7E1FF99001748094A88500133CE
:105750001F2BF8D9144A064B1A62DA61B7E7134BCC
:10576000134A42211348FDF735FFC0465346000057
:10577000AC2100204C330000A8210020EE290000BD
:10578000C40F0000C20D0000962B0000C0B5000041
:10579000182B0000CC2A000010B50000FC2C0000E3
:1057A00051ED876434950010B95700102CA70010F4
:1057B000C4A7001060A7001007B56046002800D1FC
:1057C00000BE01880A0A0230DF2AFAD1C9B2820873
:1057D00004D3028840880004104300E00068024AB5
:1057E0005050039007BD0000AC210020C30FDB0721
:1057F00041000A0E07D0FF2A08D00909054A891876
:105800001943400770471900002070470249C91822
:10581000FAE70000000000380000F07F10B5040037
:1058200002F070FF002804D00419034B9C4200D8FA
:1058300010BD0248FDF768FF00000420D8A7001043
:1058400010B502F069FF10BD01480421014B184753
:10585000400C0020D9480010014B1B68184700007D
:10586000400C0020014B5B6818470000400C0020F2
:1058700010B50300080011001B68984710BD000018
:10588000F8B507000D001600437D002B02D0002460
:1058900000200CE003681100280098472DE03B7DB4
:1058A00010E0022115483B689847601C0134B4425F
:1058B00014DA002CF3DD2B19013B1B780D3B5A4207
:1058C0005341DBB22A5D0A2AF0D1002BEED1A0426F
:1058D000E7DA211A28183B689847E2E7B04203DA72
:1058E000311A28183B689847002E06DDAD19013D96
:1058F0002B780D3B5A4253413B75F8BD68A8001008
:1059000070B505000368002B16D00C4B1C6805E031
:10591000290004C92000FFF7B3FF2469002C09D037
:105920002368002BF9D0064B1B68002BF0D0A34254
:10593000F3D1EDE700232B6070BDC0466C1C002046
:10594000781C002070B505000C000B68802B05D07A
:1059500021684B1C23606418257170BD0800FFF797
:10596000CFFFF5E710B5FCF7E5FF02000B1E0BDBE0
:105970000D48002112184B41002B0BDB002B0DDBD7
:105980000A4803F05DFB10BD094B0A4A3F210A4853
:10599000FDF720FE01225242084BEFE7044B054A77
:1059A0003F210548FDF716FE40420F00F814002085
:1059B000089B001050A80010249B0010FFFFFF7FE1
:1059C00010B5024803F004FB10BDC046F8140020D7
:1059D000F0B5CE46474680B583B006000D00904630
:1059E0001C00FFF7BFFF81466B1C05D0002C08D0C0
:1059F000194F1A4B1C6807E0300003F07BF90500D3
:105A0000F4E7174FF5E72469002C17D02368002B23
:105A1000F9D0144B1B68002B01D0A342F3D12A000C
:105A200031002000B8474346002BECD06B46D91D0F
:105A30000A230B7001222000B847E4E74B46002BF5
:105A400007D16B1E9D41E8B203B0C0BCB946B04659
:105A5000F0BDFFF7B5FFF4E7715800106C1C002093
:105A600081580010781C002010B582B004006B46ED
:105A7000D81D0470002300220121FFF7A9FF200098
:105A800002B010BD094A01E010331A001368002B60
:105A900008D08342F8D1002907D10369136000239D
:105AA000036102E0002900D0106070476C1C0020E8
:105AB00010B5064B1C6801E098472469002C03D000
:105AC0006368002BF8D1F8E710BDC0466C1C0020BD
:105AD00070B5050003F00EF9040000230122010057
